:10000000020D1C1208EEC201C2052202022EE59A60
:1000100030E13F539AFD7842E6FFC3783E96502385
:1000200000007843E6FEEF25E024BCF582E43402CC
:10003000F583E5822EF582E43583F583E0F59B18A0
:1000400006800FC20A784306E6C394024002E4F633
:1000500000007845E606D394144004E4F608F6E57B
:100060009A20E003020120539AFEE47845F608E660
:1000700014602814603124FE604D14700302010ADC
:100080002405600302011CE59B64AA6009E59B64EA
:10009000BB60030201207846760122E59BB483050C
:1000A00078467602228075783DA69BE6FFC39428A9
:1000B0005006EFC39402500280627840A607E478AD
:1000C0003CF678467604227841E6FF783CE625E067
:1000D00025E0241CF582E43402F583E5822FF582C5
:1000E000E43583F583E59BF07840E6659BF6783C44
:1000F00006E62401FFE433FE08E6FDC3EF9D7480AD
:10010000F86E98401B78467605227840E6B59B0A43
:100110000806E6C394044002E4F68000E47846F65C
:100120002230993EC2997837E6FFC3783396502142
:100130007838E6FEEF25E024CCF582E43401F5833F
:10014000E5822EF582E43583F583E0F59918068083
:10015000110000C209783806E6C394024002E4F6B2
:100160000000783AE606D394144004E4F608F6203A
:10017000980302022DC298E4783AF608E614602843
:1001800014603124FE604D147003020217240560D0
:1001900003020229E59964AA6009E59964BB60033A
:1001A00002022D783B760122E599B48305783B76EF
:1001B000022280757832A699E6FFC394285006EF94
:1001C000C39402500280627835A607E47831F6784D
:1001D0003B7604227836E6FF7831E625E025E024F8
:1001E0002CF582E43401F583E5822FF582E4358332
:1001F000F583E599F07835E66599F6783106E624D9
:1002000001FFE433FE08E6FDC3EF9D7480F86E98AD
:10021000401B783B7605227835E6B5990A0806E654
:10022000C394044002E4F68000E4783BF622C0E088
:10023000C0F0C083C082C0D075D000C000C001C073
:1002400002C003C004C005C006C007758CF8758ADB
:10025000CD752200E52275F008A42408F8E6FE0812
:10026000E64E70030202FBE52275F008A4240AF8AA
:10027000E6FE08E64E7074E52275F008A4240FF837
:10028000E6600CE52275F008A4240EF806803BE534
:100290002275F008A42408F8E6FE08E6AA06F9127A
:1002A0000648E52275F008A4240EF816E52275F03C
:1002B00008A4240CF8E6FE08E64E700EE52275F060
:1002C00008A42408F87600087600E52275F008A452
:1002D000240CF8E6FE08E6FF4E6020E52275F008E3
:1002E000A4240AF8A60608A6078010E52275F008DF
:1002F000A4240AF808E616187001160522E522C3A0
:1003000094025003020254D007D006D005D004D086
:1003100003D002D001D000D0D0D082D083D0F0D092
:10032000E032AA07A905E4F52AF529F528F527E51D
:100330002AF52AE529F529E528F528E52744C0F519
:1003400027AF03120D3EE4FCFDFE781C120629E5E2
:100350002A4FF52AE5294EF529E5284DF528E52708
:100360004CF527AF01120D3EE4FCFDFE781A120693
:1003700029E52A4FF52AE5294EF529E5284DF528E6
:10038000E5274CF527AF02120D3EE4FCFDFE781880
:10039000120629E52A4FF52AE5294EF529E5284DCB
:1003A000F528E5274CF527AF03E4FCFDFE78101295
:1003B0000629E52A4FF52AE5294EF529E5284DF5C8
:1003C00028E5274CF527AF01E4FCFDFE780812066E
:1003D00029E52A4FF52AE5294EF529E5284DF52886
:1003E000E5274CF527E52A4AF52AE529F529E528E8
:1003F000F528E527F527AE29AF2A020AE2300A03DD
:100400000204D6120C10EF70030204D67843E6FF04
:1004100024C0F582E43402F583E0FEC3942850063C
:10042000EEC39402500F784306E6C39402500302D1
:1004300004D6E4F6227843E6FD24BCF582E43402D7
:10044000F58374BBF074BE2DF582E43402F5837439
:1004500083F0EE04FD74C02FF582E43402F583EDE1
:10046000F0EE04FDEE25E024C2F582E43402F583CB
:10047000E5822FF582E43583F583EDF0E4FFEFC3E9
:100480009E50447843E6FDEE25E024C2F582E43434
:1004900002F583E5822DF582E43583F583C083C0C0
:1004A00082E0FDE6FCEF25E024C2F582E43402F5AB
:1004B00083E5822CF582E43583F583E0FCED6CD096
:1004C00082D083F00F80B7E47842F6EE2404783EC1
:1004D000F6D20A439A02223009030205AF120BDE5C
:1004E000EF70030205AF7838E6FF24D0F582E434DC
:1004F00001F583E0FEC394285006EEC39402500F2A
:10050000783806E6C3940250030205AFE4F6227879
:1005100038E6FD24CCF582E43401F58374BBF07435
:10052000CE2DF582E43401F5837483F0EE04FD747E
:10053000D02FF582E43401F583EDF0EE04FDEE25D5
:10054000E024D2F582E43401F583E5822FF582E4DC
:100550003583F583EDF0E4FFEFC39E50447838E631
:10056000FDEE25E024D2F582E43401F583E5822D09
:10057000F582E43583F583C083C082E0FDE6FCEFBD
:1005800025E024D2F582E43401F583E5822CF5825E
:10059000E43583F583E0FCED6CD082D083F00F80EE
:1005A000B7E47837F6EE24047833F6D209D29922EC
:1005B000BB010689828A83E0225002E722BBFE0249
:1005C000E32289828A83E49322BB010CE58229F528
:1005D00082E5833AF583E0225006E92582F8E62297
:1005E000BBFE06E92582F8E222E58229F582E58351
:1005F0003AF583E49322F8BB010DE58229F582E503
:10060000833AF583E8F0225006E92582C8F622BB3A
:10061000FE05E92582C8F222EB9FF5F0EA9E42F042
:10062000E99D42F0E89C45F022E8600FEFC333FFFC
:10063000EE33FEED33FDEC33FCD8F122ECF0A3ED0C
:10064000F0A3EEF0A3EFF0228A838982E473120B09
:10065000F7EF60797839E6FF06E6C394044002E4D8
:10066000F6742C2FF582E43401F583E02440705DAC
:100670007834E6FF24D0F582E43401F5837407F082
:1006800074D22FF582E43401F58374C0F0E4FF786E
:1006900034E6FE24D0F582E43401F583E014FDEF66
:1006A000C39D501BEF25E024D4F582E43401F5838B
:1006B000E5822EF582E43583F583EFF00F80D07864
:1006C0003406E6C394024002E4F61204D722120C68
:1006D00029EF60797844E6FF06E6C394044002E41B
:1006E000F6741C2FF582E43402F583E02440705D3B
:1006F000783FE6FF24C0F582E43402F5837407F006
:1007000074C22FF582E43402F58374C0F0E4FF78FC
:100710003FE6FE24C0F582E43402F583E014FDEFE9
:10072000C39D501BEF25E024C4F582E43402F58319
:10073000E5822EF582E43583F583EFF00F80D078E3
:100740003F06E6C394024002E4F61203FD228B2C1E
:100750008A2D892E74FF7849F608F68D2FAF2F1554
:100760002FEF6058AB2C052EE52EAA2D7002052D1B
:1007700014F91205B0FF7849E6F608E66FF6E4F5DD
:1007800030E530C3940850D57849E6FE08E6FF30DE
:10079000E019EEC313FEEF13FF18EEF608EFF6EEC6
:1007A00064A018F6EF640108F6800D7849E6C313DB
:1007B0007949F708E61309F7053080C522E4FCEC17
:1007C00075F008A42408F8E6F58308E64583600977
:1007D000ECC3940250030C80E6BC02037F0222ECBF
:1007E00075F008A42408F8A60608A607AF05EC755E
:1007F000F008A4240AF8760008A607AF03EC75F009
:1008000008A4240CF8760008A607A20BE433FFEC3A
:1008100075F008A4240FF8A607EC75F008A4240EC0
:10082000F8E4F6AF0422E4F523E52375F008A424E8
:100830000FF8E66049E52375F008A4240EF8E6D326
:100840009400403AE52375F008A42408F8E6FE0871
:10085000E6AA06F9120648E52375F008A4240EF866
:1008600016E52375F008A4240CF8E6FE08E64E70A1
:100870000DE52375F008A42408F8E4F608F605232E
:10088000E523C3940240A2020D6D8E248F258B2692
:100890008A278928120C5BE4FDE524F5C38DC4ABDF
:1008A00026AA27A9288D827583001205C9F5C2538F
:1008B000C5F843C502120CB675C65A75C6A5001216
:1008C0000D49E4F5C2120CB075C65A75C6A50012E2
:1008D0000D49AB26AA27A9288D827583001205C968
:1008E00065C260037F01220DBD20AE7F002275C16D
:1008F00037E4FF120D83EF7008900047E064A560B5
:1009000005120B44D206900048E09000D7F090000A
:1009100049E0FFE4FCFDFE90011212063C90004A03
:10092000E024FF92C2A3E024FF92C3A3E0FF900063
:1009300073E4F0A3EFF090004DE09000CEF0900053
:100940004EE09000F7F02275C135200202D2063049
:100950000302D20630060280FE120D87120D8912A4
:100960000D8B120D52120D61120D67900003E00401
:10097000F07006900002E004F0C3900003E0940AD7
:10098000900002E09400400BE4F0A3F07D017F01B1
:10099000120C732290004774A5F09000D7E09000ED
:1009A00048F0900112A3A3A3E0900049F090012A1F
:1009B000E090004AF090012BE090004BF090007323
:1009C000A3E090004CF09000CEE090004DF090003D
:1009D000F7E090004EF0E4900066F0FF0209DFAB14
:1009E00007E4FE900066E0FD74472EF582E43400D3
:1009F000F583E0FCED6C900066F00EBE1FE575C15E
:100A000037EB70197B017A0079477F007E0212086C
:100A10008A7B017A007947E4FFFE12088AE4FF0F1F
:100A2000BFFFFC228E188F198B1A8A1B891CE4F5D4
:100A30001EF51D7E00E519251DFFEE3518FE120C72
:100A400042AB1AAA1BA91C851D82758300EF1205F3
:100A5000F6851D827583001205C9621E051DE51D00
:100A6000C3942040CEAF1E22E4FBFD7FFF120BC3D8
:100A7000900313E0602F900311E0601414F0E07015
:100A80000CA3E0900310F0900313E014F0120D7D1E
:100A9000900310E0601214F0E0700A900312E090EE
:100AA0000311F08000120D802290030EE0602F9061
:100AB000030CE0601414F0E0700CA3E090030FF05E
:100AC00090030EE014F0120D7790030FE060121403
:100AD000F0E0700A90030DE090030CF08000120D1E
:100AE0007A228F828E83E4F52BE4FCFDFFFEFBFA75
:100AF000F9F8C31206186004D2B48002C2B4E582C9
:100B000025E0F582E58333F583120CF4052BE52B04
:100B1000C3942040D422E4F58E75C137120B6B12BA
:100B20000CC27E0D7F71C20B7B01E4FD1207BD7EFE
:100B3000097F47D20B7B64E4FD1207BD120D7412CE
:100B4000082680FB90004774A5F0A37414F0A374EA
:100B500001F0E4A3F0A3F0A37419F0A37401F0A3CF
:100B600004F0E4900066F0FF0209DFC206D202C280
:100B700003120003120C88120D86120D04120D8848
:100B8000120D8AE4900002F0A3F022E47834F678A3
:100B900038F67837F67833F67836F67839F6783BE3
:100BA000F6C209783AF622E4783FF67843F67842BE
:100BB000F6783EF67841F67844F67846F6C20A783A
:100BC00045F6228F248D258B26120D10AB26AD25E0
:100BD000AF24120322AB26AD25AF240203227838BE
:100BE000E6FF7834E6FEC39F4004EE9FFF22C3EE8B
:100BF0007838962403FF227839E6FF7836E6FEC37C
:100C00009F4004EE9FFF22C3EE7839962405FF2211
:100C10007843E6FF783FE6FEC39F4004EE9FFF2245
:100C2000C3EE7843962403FF227844E6FF7841E63A
:100C3000FEC39F4004EE9FFF22C3EE784496240536
:100C4000FF22AD07AC068CC3EDF5C4120CB075C61F
:100C50005A75C6A500120D49AFC2228EC3E4F5C471
:100C600053C5F843C503120CB675C65A75C6A50020
:100C7000020D4990030EEFF090030DEDF004900388
:100C80000CF0E490030FF022120D28120D337D01B9
:100C90007F02120C737D017F02020C9C900313EF04
:100CA000F0900312EDF0900311F0E4900310F022A5
:100CB00053C5F843C501C2AF53C71843C70243C762
:100CC00080225389F0438901758CF8758ACDD2A9A9
:100CD000D28C22759850438920758BFD758DFDD27D
:100CE0008EC2AC22538EF7759A50438E04759CDCED
:100CF000438E1022C2B3120CFBD2B37F037E23DEDD
:100D0000FEDFFC22120CD3120CE4120B8B020BA799
:100D1000C2B4E4FD120CF40DBD20F922787FE4F694
:100D2000D8FD75814A020B1690030E7401F09003F2
:100D30000DF0229003137401F0900312F022EFF4EF
:100D400054C0C413135403FF2253C77FE4F5C6D223
:100D5000AF22300105C201120994221201210200C2
:100D60000E12064E0206CE120AA9020A6843870135
:100D700022020D5BD2AF22D2A022C2A022D2B42284
:0C0D8000C2B422E4FF22222222222222FE
:00000001FF
