:100000000208EA12026202014F222202036F120862
:1000100061EF700302014E782AE6F51B06E6C394F1
:10002000044002E4F6742C251BF582E43401F583C8
:10003000E004606C243F600302014E7825E6FF2453
:10004000D0F582E43401F5837407F074D22FF58281
:10005000E43401F58374C0F0E4F51A7825E6FF2452
:10006000D0F582E43401F583E014FEE51AC39E5016
:100070001EE51A25E024D4F582E43401F583E582F7
:100080002FF582E43583F583E51AF0051A80CC78E4
:100090002506E6C39402500302014BE4F602014B2D
:1000A0007825E6FF24D0F582E43401F5837407F067
:1000B00074D22FF582E43401F58374FFF0E4F51A6D
:1000C0007825E6FF24D0F582E43401F583E014FEC0
:1000D000E51AC39E501EE51A25E024D4F582E434C7
:1000E00001F583E5822FF582E43583F583E51AF087
:1000F000051A80CC743C251BF582E43401F583E0BD
:10010000FF7825E6FE24DAF582E43401F583EFF08A
:100110007440251BF582E43401F583E0FF74DC2E86
:10012000F582E43401F583EFF07444251BF582E495
:100130003401F583E0FF74DE2EF582E43401F583AB
:10014000EFF006E6C394024002E4F612053D22E514
:100150009A30E13F539AFD7833E6FFC3782F9650EB
:100160002300007834E6FEEF25E024BCF582E43479
:1001700002F583E5822EF582E43583F583E0F59B75
:100180001806800FC20A783406E6C394024002E4DF
:10019000F600007836E606D394144004E4F608F638
:1001A000E59A20E003020261539AFEE47836F608ED
:1001B000E614602814603124FE604D1470030202BE
:1001C0004B2405600302025DE59B64AA6009E59B80
:1001D00064BB60030202617837760122E59BB48339
:1001E0000578377602228075782EA69BE6FFC394A9
:1001F000285006EFC39402500280627831A607E4CB
:10020000782DF678377604227832E6FF782DE625C9
:10021000E025E0241CF582E43402F583E5822FF525
:1002200082E43583F583E59BF07831E6659BF678CB
:100230002D06E62401FFE433FE08E6FDC3EF9D74BE
:1002400080F86E98401B78377605227831E6B59BAA
:100250000A0806E6C394044002E4F68000E4783716
:10026000F62230993EC2997828E6FFC3782496504A
:10027000217829E6FEEF25E024CCF582E43401F56F
:1002800083E5822EF582E43583F583E0F59918063F
:1002900080110000C209782906E6C394024002E4F6
:1002A000F60000782BE606D394144004E4F608F632
:1002B00020980302036EC298E4782BF608E61460D7
:1002C0002814603124FE604D147003020358240585
:1002D000600302036AE59964AA6009E59964BB605A
:1002E0000302036E782C760122E599B48305782CFD
:1002F00076022280757823A699E6FFC394285006DB
:10030000EFC39402500280627826A607E47822F6B2
:10031000782C7604227827E6FF7822E625E025E08F
:10032000242CF582E43401F583E5822FF582E4354F
:1003300083F583E599F07826E66599F6782206E656
:100340002401FFE433FE08E6FDC3EF9D7480F86EE0
:1003500098401B782C7605227826E6B5990A08067F
:10036000E6C394044002E4F68000E4782CF622C050
:10037000E0C0F0C083C082C0D075D000C000C00112
:10038000C002C003C004C005C006C007758CF87564
:100390008ACD751800E51875F008A42408F8E6FE63
:1003A00008E64E700302043CE51875F008A4240A20
:1003B000F8E6FE08E64E7074E51875F008A4240F00
:1003C000F8E6600CE51875F008A4240EF806803BEA
:1003D000E51875F008A42408F8E6FE08E6AA06F970
:1003E0001208FCE51875F008A4240EF816E5187537
:1003F000F008A4240CF8E6FE08E64E700EE5187529
:10040000F008A42408F87600087600E51875F008CE
:10041000A4240CF8E6FE08E6FF4E6020E51875F00F
:1004200008A4240AF8A60608A6078010E51875F0A7
:1004300008A4240AF808E616187001160518E5182D
:10044000C394025003020395D007D006D005D00410
:10045000D003D002D001D000D0D0D082D083D0F051
:10046000D0E032300A0302053C12087AEF70030232
:10047000053C7834E6FF24C0F582E43402F583E0DD
:10048000FEC394285006EEC39402500F783406E65B
:10049000C39402500302053CE4F6227834E6FD24BE
:1004A000BCF582E43402F58374BBF074BE2DF58292
:1004B000E43402F5837483F0EE04FD74C02FF582FA
:1004C000E43402F583EDF0EE04FDEE25E024C2F500
:1004D00082E43402F583E5822FF582E43583F583E7
:1004E000EDF0E4FFEFC39E50447834E6FDEE25E0E6
:1004F00024C2F582E43402F583E5822DF582E435E9
:1005000083F583C083C082E0FDE6FCEF25E024C2D2
:10051000F582E43402F583E5822CF582E43583F537
:1005200083E0FCED6CD082D083F00F80B7E47833A9
:10053000F6EE2404782FF6D20A439A0222300903F9
:10054000020615120848EF70030206157829E6FF27
:1005500024D0F582E43401F583E0FEC394285006EC
:10056000EEC39402500F782906E6C39402500302AA
:100570000615E4F6227829E6FD24CCF582E4340160
:10058000F58374BBF074CE2DF582E43401F58374E9
:1005900083F0EE04FD74D02FF582E43401F583ED91
:1005A000F0EE04FDEE25E024D2F582E43401F5837B
:1005B000E5822FF582E43583F583EDF0E4FFEFC3A8
:1005C0009E50447829E6FDEE25E024D2F582E434FD
:1005D00001F583E5822DF582E43583F583C083C080
:1005E00082E0FDE6FCEF25E024D2F582E43401F55B
:1005F00083E5822CF582E43583F583E0FCED6CD055
:1006000082D083F00F80B7E47828F6EE24047824B3
:10061000F6D209D29922120893EF60797835E6FF75
:1006200006E6C394044002E4F6741C2FF582E43419
:1006300002F583E02440705D7830E6FF24C0F58247
:10064000E43402F5837407F074C22FF582E43402B7
:10065000F58374C0F0E4FF7830E6FE24C0F582E450
:100660003402F583E014FDEFC39D501BEF25E02419
:10067000C4F582E43402F583E5822EF582E4358305
:10068000F583EFF00F80D0783006E6C39402400285
:10069000E4F612046322E4FCEC75F008A42408F8E4
:1006A000E6F58308E645836009ECC3940250030C29
:1006B00080E6BC02037F0222EC75F008A42408F84F
:1006C000A60608A607AF05EC75F008A4240AF8767C
:1006D0000008A607AF03EC75F008A4240CF8760018
:1006E00008A607A20BE433FFEC75F008A4240FF86A
:1006F000A607EC75F008A4240EF8E4F6AF0422E493
:10070000F519E51975F008A4240FF8E66049E51914
:1007100075F008A4240EF8E6D39400403AE5197564
:10072000F008A42408F8E6FE08E6AA06F91208FC78
:10073000E51975F008A4240EF816E51975F008A45B
:10074000240CF8E6FE08E64E700DE51975F008A4D5
:100750002408F8E4F608F60519E519C3940240A246
:10076000020902E4F58E75C1377593207594C0F5C2
:1007700091F592F595759601F5B175B210F5B375D1
:10078000B43C1207F01208AC7E097F06C20B7B0155
:10079000E4FD1206967E077FAAD20B7B64E4FD126D
:1007A00006961209091206FF80FB75C13520020268
:1007B000D206300302D20630060280FE12000A1270
:1007C000091112091312090F1208F612090D9000EF
:1007D00003E004F07006900002E004F0C390000310
:1007E000E0940A900002E094004004E4F0A3F022B8
:1007F000C206D202C20312090E12090C120009121B
:1008000008DE120910120912E4900002F0A3F0228F
:10081000E47825F67829F67828F67824F67827F60D
:10082000782AF6782CF6C209782BF622E47830F68E
:100830007834F67833F6782FF67832F67835F6781D
:1008400037F6C20A7836F6227829E6FF7825E6FEE2
:10085000C39F4004EE9FFF22C3EE7829962403FF36
:1008600022782AE6FF7827E6FEC39F4004EE9FFF2A
:1008700022C3EE782A962405FF227834E6FF7830EA
:10088000E6FEC39F4004EE9FFF22C3EE7834962419
:1008900003FF227835E6FF7832E6FEC39F4004EE80
:1008A0009FFF22C3EE7835962405FF225389F0433B
:1008B0008901758CF8758ACDD2A9D28C2275985091
:1008C000438920758BFD758DFDD28EC2AC22538E6F
:1008D000F7759A50438E04759CDC438E10221208E3
:1008E000BD1208CE12081002082C787FE4F6D8FD5D
:1008F00075813702076312000E0206168A83898209
:10090000E47343870122020003D2AF222222222273
:04091000222222225B
:00000001FF
