:10000000020827120B37C201C205220203FE120E9C
:100010009CEF70030201DD783FE6F52506E6C39408
:10002000044002E4F6742C2525F582E43401F583BE
:10003000E00470030200EB243F60030201DD783A24
:10004000E6FF24D0F582E43401F5837407F074D21E
:100050002FF582E43401F58374C0F0E4F524783A96
:10006000E6FF24D0F582E43401F583E014FEE524B4
:10007000C39E501EE52425E024D4F582E43401F526
:1000800083E5822FF582E43583F583E524F00524AA
:1000900080CC783A06E6C394024002E4F61206B039
:1000A00090030FE004F0D394144002E4F090030FA7
:1000B000E0FE75F003A42411F582E43403F583E037
:1000C000FF90034FF0EE75F003A42412F582E434A0
:1000D00003F583E090034EF0FD90030FE075F0030D
:1000E000A42413F582E434030201D1783AE6FF2414
:1000F000D0F582E43401F5837407F074D22FF582D1
:10010000E43401F58374FFF0E4F524783AE6FF2443
:10011000D0F582E43401F583E014FEE524C39E505B
:100120001EE52425E024D4F582E43401F583E5823C
:100130002FF582E43583F583E524F0052480CC7423
:100140003C2525F582E43401F583E0FF783AE6FEAC
:1001500024DAF582E43401F583EFF074402525F5C7
:1001600082E43401F583E0FF74DC2EF582E434018F
:10017000F583EFF074442525F582E43401F583E03E
:10018000FF74DE2EF582E43401F583EFF006E6C35A
:1001900094024002E4F61206B090030FE004F0D39C
:1001A00094144002E4F0743C2525F582E43401F512
:1001B00083E0FF90034FF074402525F582E434017D
:1001C000F583E090034EF0FD74442525F582E43478
:1001D00001F583E0FE90034DF0FB120E2D22E59A0F
:1001E00030E13F539AFD7848E6FFC37844965023A8
:1001F00000007849E6FEEF25E024BCF582E43402F5
:10020000F583E5822EF582E43583F583E0F59B18CE
:1002100006800FC20A784906E6C394024002E4F65B
:100220000000784BE606D394144004E4F608F6E5A3
:100230009A20E0030202F0539AFEE4784BF608E6B7
:1002400014602814603124FE604D1470030202DA39
:10025000240560030202ECE59B64AA6009E59B6447
:10026000BB60030202F0784C760122E59BB4830563
:10027000784C76022280757843A69BE6FFC39428CB
:100280005006EFC39402500280627846A607E478D5
:1002900042F6784C7604227847E6FF7842E625E07D
:1002A00025E0241CF582E43402F583E5822FF582F3
:1002B000E43583F583E59BF07846E6659BF6784266
:1002C00006E62401FFE433FE08E6FDC3EF9D7480DB
:1002D000F86E98401B784C7605227846E6B59B0A66
:1002E0000806E6C394044002E4F68000E4784CF685
:1002F0002230993EC299783DE6FFC3783996502165
:10030000783EE6FEEF25E024CCF582E43401F58367
:10031000E5822EF582E43583F583E0F599180680B1
:10032000110000C209783E06E6C394024002E4F6DA
:1003300000007840E606D394144004E4F608F62062
:1003400098030203FDC298E47840F608E61460289A
:1003500014603124FE604D1470030203E72405602D
:10036000030203F9E59964AA6009E59964BB600397
:100370000203FD7841760122E599B4830578417640
:10038000022280757838A699E6FFC394285006EFBC
:10039000C3940250028062783BA607E47837F6786F
:1003A00041760422783CE6FF7837E625E025E02414
:1003B0002CF582E43401F583E5822FF582E4358360
:1003C000F583E599F0783BE66599F6783706E624FB
:1003D00001FFE433FE08E6FDC3EF9D7480F86E98DC
:1003E000401B7841760522783BE6B5990A0806E677
:1003F000C394044002E4F68000E47841F622C0E0B1
:10040000C0F0C083C082C0D075D000C000C001C0A1
:1004100002C003C004C005C006C007758CF8758A09
:10042000CD752200E52275F008A42408F8E6FE0840
:10043000E64E70030204CBE52275F008A4240AF806
:10044000E6FE08E64E7074E52275F008A4240FF865
:10045000E6600CE52275F008A4240EF806803BE562
:100460002275F008A42408F8E6FE08E6AA06F912A8
:100470000821E52275F008A4240EF816E52275F08F
:1004800008A4240CF8E6FE08E64E700EE52275F08E
:1004900008A42408F87600087600E52275F008A480
:1004A000240CF8E6FE08E6FF4E6020E52275F00811
:1004B000A4240AF8A60608A6078010E52275F0080D
:1004C000A4240AF808E616187001160522E522C3CE
:1004D00094025003020424D007D006D005D004D0E3
:1004E00003D002D001D000D0D0D082D083D0F0D0C1
:1004F000E032AB28AD27AF26AA07A905E4F52CF515
:100500002BF52AF529E52CF52CE52BF52BE52AF51D
:100510002AE52944C0F529AF03120FD0E4FCFDFE03
:10052000781C120802E52C4FF52CE52B4EF52BE537
:100530002A4DF52AE5294CF529AF01120FD0E4FC2C
:10054000FDFE781A120802E52C4FF52CE52B4EF52E
:100550002BE52A4DF52AE5294CF529AF02120FD0DB
:10056000E4FCFDFE7818120802E52C4FF52CE52B73
:100570004EF52BE52A4DF52AE5294CF529AF03E484
:10058000FCFDFE7810120802E52C4FF52CE52B4EF1
:10059000F52BE52A4DF52AE5294CF529AF01E4FCB8
:1005A000FDFE7808120802E52C4FF52CE52B4EF5E0
:1005B0002BE52A4DF52AE5294CF529E52C4AF52CA1
:1005C000E52BF52BE52AF52AE529F529AF2CAE2BED
:1005D000AD2AFC020A6F300A030206AF120EB5EF15
:1005E00070030206AF7849E6FF24C0F582E43402C6
:1005F000F583E0FEC394285006EEC39402500F78B2
:100600004906E6C3940250030206AFE4F622784995
:10061000E6FD24BCF582E43402F58374BBF074BEBD
:100620002DF582E43402F5837483F0EE04FD74C08A
:100630002FF582E43402F583EDF0EE04FDEE25E0C3
:1006400024C2F582E43402F583E5822FF582E43595
:1006500083F583EDF0E4FFEFC39E50447849E6FD57
:10066000EE25E024C2F582E43402F583E5822DF51F
:1006700082E43583F583C083C082E0FDE6FCEF258C
:10068000E024C2F582E43402F583E5822CF582E4AD
:100690003583F583E0FCED6CD082D083F00F80B71A
:1006A000E47848F6EE24047844F6D20A439A02220B
:1006B000300903020788120E83EF7003020788785F
:1006C0003EE6FF24D0F582E43401F583E0FEC394D6
:1006D000285006EEC39402500F783E06E6C39402FB
:1006E0005003020788E4F622783EE6FD24CCF5822A
:1006F000E43401F58374BBF074CE2DF582E434014B
:10070000F5837483F0EE04FD74D02FF582E4340198
:10071000F583EDF0EE04FDEE25E024D2F582E4341D
:1007200001F583E5822FF582E43583F583EDF0E46E
:10073000FFEFC39E5044783EE6FDEE25E024D2F55F
:1007400082E43401F583E5822DF582E43583F58377
:10075000C083C082E0FDE6FCEF25E024D2F582E410
:100760003401F583E5822CF582E43583F583E0FCE2
:10077000ED6CD082D083F00F80B7E4783DF6EE24A4
:10078000047839F6D209D29922BB010689828A837C
:10079000E0225002E722BBFE02E32289828A83E440
:1007A0009322BB010CE58229F582E5833AF583E0CB
:1007B000225006E92582F8E622BBFE06E92582F8EA
:1007C000E222E58229F582E5833AF583E49322F873
:1007D000BB010DE58229F582E5833AF583E8F02235
:1007E0005006E92582C8F622BBFE05E92582C8F23B
:1007F00022EB9FF5F0EA9E42F0E99D42F0E89C452D
:10080000F022E8600FEFC333FFEE33FEED33FDEC73
:1008100033FCD8F122ECF0A3EDF0A3EEF0A3EFF05F
:10082000228A838982E473787FE4F6D8FD7581504B
:1008300002086E020C79E493A3F8E493A34003F654
:100840008001F208DFF48029E493A3F85407240C14
:10085000C8C333C4540F4420C8834004F4568001F5
:1008600046F6DFE4800B0102040810204080900B64
:1008700090E47E019360BCA3FF543F30E509541F10
:10088000FEE493A360010ECF54C025E060A840B8F9
:10089000E493A3FAE493A3F8E493A3C8C582C8CA77
:1008A000C583CAF0A3C8C582C8CAC583CADFE9DE4A
:1008B000E780BE120ECEEF6079784AE6FF06E6C307
:1008C00094044002E4F6741C2FF582E43402F583AC
:1008D000E02440705D7845E6FF24C0F582E43402F0
:1008E000F5837407F074C22FF582E43402F5837443
:1008F000C0F0E4FF7845E6FE24C0F582E43402F55A
:1009000083E014FDEFC39D501BEF25E024C4F58266
:10091000E43402F583E5822EF582E43583F583EF36
:10092000F00F80D0784506E6C394024002E4F61248
:1009300005D6228B328A33893474FF784FF608F655
:100940008D35AF351535EF6058AB320534E534AA37
:10095000337002053314F9120789FF784FE6F60861
:10096000E66FF6E4F536E536C3940850D5784FE6E1
:10097000FE08E6FF30E019EEC313FEEF13FF18EE9A
:10098000F608EFF6EE64A018F6EF640108F6800DA5
:10099000784FE6C313794FF708E61309F705368059
:1009A000C522E4FCEC75F008A42408F8E6F58308F9
:1009B000E645836009ECC3940250030C80E6BC0258
:1009C000037F0222EC75F008A42408F8A60608A606
:1009D00007AF05EC75F008A4240AF8760008A6070E
:1009E000AF03EC75F008A4240CF8760008A607A263
:1009F0000BE433FFEC75F008A4240FF8A607EC75A0
:100A0000F008A4240EF8E4F6AF0422E4F523E5236D
:100A100075F008A4240FF8E66049E52375F008A4F2
:100A2000240EF8E6D39400403AE52375F008A42498
:100A300008F8E6FE08E6AA06F9120821E52375F093
:100A400008A4240EF816E52375F008A4240CF8E693
:100A5000FE08E64E700DE52375F008A42408F8E4BE
:100A6000F608F60523E523C3940240A2020FFF8F88
:100A7000308E2F8D2E8C2DE4F531E4FFFEFDE52D1B
:100A80005480FCE4FBFAF9F8C31207F16004D2B415
:100A90008002C2B400000000000000000000AF307F
:100AA000AE2FAD2EAC2D78011208028F308E2F8D17
:100AB0002E8C2DC2B300000000000000000000D208
:100AC000B3000000000000000000000531E531B473
:100AD00020A8228E248F258B268A278928120F0092
:100AE000E4FDE524F5C38DC4AB26AA27A9288D8291
:100AF0007583001207A2F5C253C5F843C502120F51
:100B00007075C65A75C6A500120FDBE4F5C2120F48
:100B10006A75C65A75C6A500120FDBAB26AA27A9AF
:100B2000288D827583001207A265C260037F0122AF
:100B30000DBD20AE7F002275C137E4FF121018EF03
:100B40007008900047E064A56005120DE6D206909B
:100B50000048E09000D7F0900049E0FFE4FCFDFE83
:100B600090011212081590004AE024FF92C2A3E0FF
:100B700024FF92C3A3E0FF900073E4F0A3EFF09092
:100B8000004DE09000CEF090004EE09000F7F02293
:100B900041034F0041034E0041034D0041030F004C
:100BA000603C0311BF676686473FB19693EB7A7747
:100BB000954A45A96360CB4042AB3B3AD7C4BB9052
:100BC0004840734338C73E3A554236994639F19406
:100BD00083B54434B9887DF17C67884C3AE8301598
:100BE0000075C135200202D206300302D20630065B
:100BF0000280FE12101C12101E121020120FE4129E
:100C00000FF3120FF9900003E004F0700690000259
:100C1000E004F0C3900003E0940A900002E0940026
:100C2000400BE4F0A3F07D017F01120F1822900029
:100C30004774A5F09000D7E0900048F0900112A30F
:100C4000A3A3E0900049F090012AE090004AF090C0
:100C5000012BE090004BF0900073A3E090004CF06B
:100C60009000CEE090004DF09000F7E090004EF044
:100C7000E4900066F0FF020CC0E4F58E75C1377594
:100C800093207594C0F591F592F595759601F5B19F
:100C900075B210F5B375B43C120E0D120F7C7E10B8
:100CA0007F03C20B7B01E4FD1209A27E0B7FE1D220
:100CB0000B7B64E4FD1209A2121006120A0B80FBE2
:100CC000AB07E4FE900066E0FD74472EF582E43445
:100CD00000F583E0FCED6C900066F00EBE1FE5753C
:100CE000C137EB70197B017A0079477F007E0212D1
:100CF0000AD37B017A007947E4FFFE120AD3E4FFAE
:100D00000FBFFFFC228E188F198B1A8A1B891CE4D7
:100D1000F51EF51D7E00E519251DFFEE3518FE12A6
:100D20000EE7AB1AAA1BA91C851D82758300EF1262
:100D300007CF851D827583001207A2621E051DE57F
:100D40001DC3942040CEAF1E22900352E0602F902E
:100D50000350E0601414F0E0700CA3E0900353F033
:100D6000900352E014F0121009900353E060121443
:100D7000F0E0700A900351E0900350F080001210F0
:100D80000C22900310E0602F90030DE0601414F02B
:100D9000E0700CA3E090030CF0900310E014F0124C
:100DA000101290030CE0601214F0E0700A90030E31
:100DB000E090030DF0800012101522C2B400000074
:100DC00000000000000000E4FFC2B30000000000CB
:100DD0000000000000D2B30000000000000000008E
:100DE000000FBF20E42290004774A5F0A37414F014
:100DF000A37401F0E4A3F0A3F0A37419F0A37401A9
:100E0000F0A304F0E4900066F0FF020CC0C206D22A
:100E100002C203120003120F4212101B120FAE1275
:100E2000101D12101FE4900002F0A3F0228F268DF7
:100E3000278B287F0A120F2D120DBB1204F27F0A96
:100E4000120F2D1204F27F0A020F2DE4783AF67881
:100E50003EF6783DF67839F6783CF6783FF67841FC
:100E6000F6C2097840F622E47845F67849F67848E3
:100E7000F67844F67847F6784AF6784CF6C20A785F
:100E80004BF622783EE6FF783AE6FEC39F4004EE3A
:100E90009FFF22C3EE783E962403FF22783FE6FFB1
:100EA000783CE6FEC39F4004EE9FFF22C3EE783FEE
:100EB000962405FF227849E6FF7845E6FEC39F4069
:100EC00004EE9FFF22C3EE7849962403FF22784A5E
:100ED000E6FF7847E6FEC39F4004EE9FFF22C3EE85
:100EE000784A962405FF22AD07AC068CC3EDF5C405
:100EF000120F6A75C65A75C6A500120FDBAFC22263
:100F00008EC3E4F5C453C5F843C503120F7075C60C
:100F10005A75C6A500020FDB900352EFF090035103
:100F2000EDF004900350F0E4900353F022AE07AFCD
:100F3000061EEF600C7FF512100F7FF512100F8068
:100F4000EE22120FBA120FC57D017F02120F187D1B
:100F5000017F02020F56900310EFF090030EEDF0A8
:100F600090030DF0E490030CF02253C5F843C50143
:100F7000C2AF53C71843C70243C780225389F04307
:100F80008901758CF8758ACDD2A9D28C22759850BA
:100F9000438920758BFD758DFDD28EC2AC22538E98
:100FA000F7759A50438E04759CDC438E1022120F05
:100FB0008D120F9E120E4B020E679003527401F0B9
:100FC000900351F0229003107401F090030EF02270
:100FD000EFF454C0C413135403FF2253C77FE4F546
:100FE000C6D2AF22300105C201120C2E221202F12C
:100FF0000201DE12000E0208B3120D49020D8243F7
:10100000870122020FEDD2AF22D2A022C2A022DF9E
:10101000FE22D2B422C2B422E4FF222222222222C1
:0110200022AD
:00000001FF
