:100DCB00E4F58E75C1377593207594C0F591F59246
:100DDB00F595759601F5B175B210F5B375B43C1276
:100DEB000EFB1211187E117F84C20D7B01E4FD12E4
:100DFB000BA97E0D7F33D20D7B64E4FD120BA91280
:070E0B001187120C1280FB9D
:031184000211391C
:100D330075C135200202D206300302D20630060204
:100D430080FE121194120000120000121171121190
:100D53004512117A900003E004F07006900002E05F
:100D630004F0C3900003E0940A900002E094004072
:0D0D73000BE4F0A3F07D017F011210DD22E2
:100EFB00C206D202C2031200031210F21211931295
:100F0B00106C120000120000E4900002F0A3F0221B
:101118005389F0438901758CF8758ACDD2A9D28C90
:0111280022A4
:03118700D2AF22C2
:03000B0002046587
:10046500C0E0C0F0C083C082C0D075D000C000C05D
:1004750001C002C003C004C005C006C007758CF8E2
:10048500758ACD752200E52275F008A42408F8E6E2
:10049500FE08E64E7003020532E52275F008A42435
:1004A5000AF8E6FE08E64E7074E52275F008A42405
:1004B5000FF8E6600CE52275F008A4240EF8068016
:1004C5003BE52275F008A42408F8E6FE08E6AA062E
:1004D500F9120B34E52275F008A4240EF816E5226E
:1004E50075F008A4240CF8E6FE08E64E700EE52229
:1004F50075F008A42408F87600087600E52275F062
:1005050008A4240CF8E6FE08E6FF4E6020E52275F7
:10051500F008A4240AF8A60608A6078010E52275A7
:10052500F008A4240AF808E616187001160522E555
:1005350022C39402500302048BD007D006D005D005
:1005450004D003D002D001D000D0D0D082D083D047
:04055500F0D0E032D0
:100C1200E4F523E52375F008A4240FF8E66049E51E
:100C22002375F008A4240EF8E6D39400403AE52395
:100C320075F008A42408F8E6FE08E6AA06F9120BE5
:100C420034E52375F008A4240EF816E52375F008A0
:100C5200A4240CF8E6FE08E64E700DE52375F008B4
:100C6200A42408F8E4F608F60523E523C394024019
:040C7200A202118049
:100BA900E4FCEC75F008A42408F8E6F58308E645AA
:100BB900836009ECC3940250030C80E6BC02037FF6
:100BC9000222EC75F008A42408F8A60608A607AFC7
:100BD90005EC75F008A4240AF8760008A607AF0307
:100BE900EC75F008A4240CF8760008A607A20DE419
:100BF90033FFEC75F008A4240FF8A607EC75F0088C
:090C0900A4240EF8E4F6AF042265
:04118000438701227E
:100F1B00E47831F67835F67834F67830F67833F6BF
:0C0F2B007836F67838F6C2097837F622DE
:1008C000120FA4EF60797836E6FF06E6C394044081
:1008D00002E4F6742C2FF582E43401F583E0244021
:1008E000705D7831E6FF24D0F582E43401F583743D
:1008F00007F074D22FF582E43401F58374C0F0E47C
:10090000FF7831E6FE24D0F582E43401F583E0146B
:10091000FDEFC39D501BEF25E024D4F582E43401A4
:10092000F583E5822EF582E43583F583EFF00F80C1
:10093000D0783106E6C394024002E4F61207E722BB
:100F3700E4783CF67840F6783FF6783BF6783EF66C
:0C0F47007841F67843F6C20A7842F622A0
:10094000120FD6EF60797841E6FF06E6C3940440C3
:1009500002E4F6741C2FF582E43402F583E02440AF
:10096000705D783CE6FF24C0F582E43402F58374C0
:1009700007F074C22FF582E43402F58374C0F0E40A
:10098000FF783CE6FE24C0F582E43402F583E014EF
:10099000FDEFC39D501BEF25E024C4F582E4340233
:1009A000F583E5822EF582E43583F583EFF00F8041
:1009B000D0783C06E6C394024002E4F612055922C0
:10109C00759850438E40538EFE53890F758B807517
:0710AC008DFBD28EC2AC22C5
:1003580030993EC2997834E6FFC3783096502178B8
:1003680035E6FEEF25E024CCF582E43401F583E59B
:10037800822EF582E43583F583E0F599180680111D
:100388000000C209783506E6C394024002E4F6008C
:10039800007837E606D394144004E4F608F620986B
:1003A80003020464C298E47837F608E61460281457
:1003B800603124FE604D14700302044E240560036E
:1003C800020460E59964AA6009E59964BB600302C8
:1003D80004647838760122E599B483057838760282
:1003E800228075782FA699E6FFC394285006EFC39C
:1003F8009402500280627832A607E4782EF67838A4
:100408007604227833E6FF782EE625E025E0242CD2
:10041800F582E43401F583E5822FF582E43583F52E
:1004280083E599F07832E66599F6782E06E6240198
:10043800FFE433FE08E6FDC3EF9D7480F86E984034
:100448001B78387605227832E6B5990A0806E6C39D
:0D04580094044002E4F68000E47838F622B7
:1007E7003009030208BF120F8BEF70030208BF78AE
:1007F70035E6FF24D0F582E43401F583E0FEC394A7
:10080700285006EEC39402500F783506E6C39402CB
:1008170050030208BFE4F6227835E6FD24CCF582C2
:10082700E43401F58374BBF074CE2DF582E4340112
:10083700F5837483F0EE04FD74D02FF582E4340160
:10084700F583EDF0EE04FDEE25E024D2F582E434E5
:1008570001F583E5822FF582E43583F583EDF0E436
:10086700FFEFC39E50447835E6FDEE25E024D2F530
:1008770082E43401F583E5822DF582E43583F5833F
:10088700C083C082E0FDE6FCEF25E024D2F582E4D8
:100897003401F583E5822CF582E43583F583E0FCAA
:1008A700ED6CD082D083F00F80B7E47834F6EE2475
:0908B700047830F6D209D299222E
:100F8B007835E6FF7831E6FEC39F4004EE9FFF22E3
:090F9B00C3EE7835962403FF2211
:100FA4007836E6FF7833E6FEC39F4004EE9FFF22C7
:090FB400C3EE7836962405FF22F5
:10112900759A50438E0475D78075D6FB438E10226D
:10024500E59A30E13F539AFD783FE6FFC3783B9648
:10025500502300007840E6FEEF25E024BCF582E45B
:100265003402F583E5822EF582E43583F583E0F5E6
:100275009B1806800FC20A784006E6C39402400226
:10028500E4F600007842E606D394144004E4F60848
:10029500F6E59A20E003020357539AFEE47842F606
:1002A50008E614602814603124FE604D14700302C2
:1002B500034124056003020353E59B64AA6009E535
:1002C5009B64BB60030203577843760122E59BB428
:1002D500830578437602228075783AA69BE6FFC3AC
:1002E50094285006EFC3940250028062783DA60719
:1002F500E47839F67843760422783EE6FF7839E6E5
:1003050025E025E0241CF582E43402F583E5822FFF
:10031500F582E43583F583E59BF0783DE6659BF64C
:10032500783906E62401FFE433FE08E6FDC3EF9DB8
:100335007480F86E98401B7843760522783DE6B5C3
:100345009B0A0806E6C394044002E4F68000E478BC
:0303550043F6224A
:10055900300A03020632120FBDEF70030206327829
:1005690040E6FF24C0F582E43402F583E0FEC3943B
:10057900285006EEC39402500F784006E6C3940251
:100589005003020632E4F6227840E6FD24BCF582E7
:10059900E43402F58374BBF074BE2DF582E43402B1
:1005A900F5837483F0EE04FD74C02FF582E4340200
:1005B900F583EDF0EE04FDEE25E024C2F582E43486
:1005C90002F583E5822FF582E43583F583EDF0E4C6
:1005D900FFEFC39E50447840E6FDEE25E024C2F5C6
:1005E90082E43402F583E5822DF582E43583F583CF
:1005F900C083C082E0FDE6FCEF25E024C2F582E479
:100609003402F583E5822CF582E43583F583E0FC39
:10061900ED6CD082D083F00F80B7E4783FF6EE24FA
:0A06290004783BF6D20A439A02223D
:100FBD007840E6FF783CE6FEC39F4004EE9FFF229B
:090FCD00C3EE7840962403FF22D4
:100FD6007841E6FF783EE6FEC39F4004EE9FFF227F
:090FE600C3EE7841962405FF22B8
:10106C0012109C1211291210B31210C8120F1B125D
:08107C000F37120F53020F6F32
:0C11390012035812024512012A02000E97
:0C1145001208C01209401209C0020A4042
:100B3A008B298A2A892B74FF785CF608F68D2CAFEC
:100B4A002C152CEF6058AB29052BE52BAA2A70022D
:100B5A00052A14F9120AC0FF785CE6F608E66FF671
:100B6A00E4F52DE52DC3940850D5785CE6FE08E639
:100B7A00FF30E019EEC313FEEF13FF18EEF608EF8D
:100B8A00F6EE64A018F6EF640108F6800D785CE6CC
:0F0B9A00C313795CF708E61309F7052D80C52210
:100F5300E47847F6784BF6784AF67846F67849F619
:0C0F6300784CF6784EF6C20B784DF62262
:1009C000121008EF6079784CE6FF06E6C394044005
:1009D00002E4F6740C2FF582E43403F583E024403E
:1009E000705D7847E6FF24B0F582E43403F5837444
:1009F00007F074B22FF582E43403F58374C0F0E499
:100A0000FF7847E6FE24B0F582E43403F583E01472
:100A1000FDEFC39D501BEF25E024B4F582E43403C1
:100A2000F583E5822EF582E43583F583EFF00F80C0
:100A3000D0784706E6C394024002E4F61206332259
:100F6F00E47853F67857F67856F67852F67855F6C1
:0C0F7F007858F6784FF6C20C7859F6222C
:100A400012103AEF60797858E6FF06E6C394044046
:100A500002E4F674FC2FF582E43403F583E02440CD
:100A6000705D7853E6FF24A0F582E43404F58374C6
:100A700007F074A22FF582E43404F58374C0F0E427
:100A8000FF7853E6FE24A0F582E43404F583E014F5
:100A9000FDEFC39D501BEF25E024A4F582E4340450
:100AA000F583E5822EF582E43583F583EFF00F8040
:100AB000D0785306E6C394024002E4F612070D22F2
:1010B30075AC1043AC4043D10275D58075D4FB4366
:0510C300D108C2C422A7
:10012A00E5AC30E14753ACFD784AE6FFC378469622
:10013A005027D2C400000000784BE6FEEF25E024E9
:10014A00ACF582E43403F583E5822EF582E4358347
:10015A00F583E0F5AD18068013C20B784B06E6C3AB
:10016A0094024002E4F600000000C2C4784DE6069C
:10017A00D394144004E4F608F6E5AC20E003020246
:10018A004453ACFEE4784DF608E614602814603156
:10019A0024FE604D14700302022E2405600302023D
:1001AA0040E5AD64AA6009E5AD64BB6003020244A0
:1001BA00784E760122E5ADB48305784E7602228028
:1001CA00757845A6ADE6FFC394285006EFC394029E
:1001DA00500280627848A607E47844F6784E76049E
:1001EA00227849E6FF7844E625E025E0240CF582EA
:1001FA00E43403F583E5822FF582E43583F583E55C
:10020A00ADF07848E665ADF6784406E62401FFE4E9
:10021A0033FE08E6FDC3EF9D7480F86E98401B78A4
:10022A004E7605227848E6B5AD0A0806E6C3940478
:0B023A004002E4F68000E4784EF6225B
:10063300300B0302070C120FEFEF700302070C7865
:100643004BE6FF24B0F582E43403F583E0FEC39464
:10065300285006EEC39402500F784B06E6C394026B
:10066300500302070CE4F622784BE6FD24ACF58236
:10067300E43403F58374BBF074AE2DF582E43403E4
:10068300F5837483F0EE04FD74B02FF582E4340334
:10069300F583EDF0EE04FDEE25E024B2F582E434BB
:1006A30003F583E5822FF582E43583F583EDF0E4EA
:1006B300FFEFC39E5044784BE6FDEE25E024B2F5F0
:1006C30082E43403F583E5822DF582E43583F583F3
:1006D300C083C082E0FDE6FCEF25E024B2F582E4AE
:1006E3003403F583E5822CF582E43583F583E0FC5E
:1006F300ED6CD082D083F00F80B7E4784AF6EE2415
:0A070300047846F6D20B43AC022244
:100FEF00784BE6FF7847E6FEC39F4004EE9FFF2253
:090FFF00C3EE784B962403FF2297
:10100800784CE6FF7849E6FEC39F4004EE9FFF2236
:09101800C3EE784C962405FF227A
:1010C80075841043844043D12075D38075D2FB4387
:0510D800D180C2C52219
:10000E00E58430E1475384FD7856E6FFC378529677
:10001E005027D2C5000000007857E6FEEF25E024F9
:10002E009CF582E43404F583E5822EF582E4358373
:10003E00F583E0F58518068013C20C785706E6C3E3
:10004E0094024002E4F600000000C2C57859E606AC
:10005E00D394144005E4F6784FF6E58420E00302CD
:10006E0001295384FEE47859F6784FE6146028147B
:10007E00603124FE604C14700302011324056003EA
:10008E00020125E58564AA6009E58564BB6003026B
:10009E000129784F760122E585B48305784F7602E3
:1000AE002280747851A685E6FFC394285006EFC3CC
:1000BE009402500280617854A607E47850F61876C0
:1000CE0004227855E6FF7850E625E025E024FCF57D
:1000DE0082E43403F583E5822FF582E43583F583DC
:1000EE00E585F07854E66585F6785006E62401FF3E
:1000FE00E433FE08E6FDC3EF9D7480F86E98401B56
:10010E00784F7605227854E6B5850A0806E6C3943C
:0C011E00044002E4F68000E4784FF62272
:10070D00300C030207E6121021EF70030207E678A2
:10071D0057E6FF24A0F582E43404F583E0FEC3948C
:10072D00285006EEC39402500F785706E6C3940284
:10073D0050030207E6E4F6227857E6FD249CF58285
:10074D00E43404F58374BBF0749E2DF582E4340417
:10075D00F5837483F0EE04FD74A02FF582E4340468
:10076D00F583EDF0EE04FDEE25E024A2F582E434F0
:10077D0004F583E5822FF582E43583F583EDF0E40E
:10078D00FFEFC39E50447857E6FDEE25E024A2F519
:10079D0082E43404F583E5822DF582E43583F58317
:1007AD00C083C082E0FDE6FCEF25E024A2F582E4E3
:1007BD003404F583E5822CF582E43583F583E0FC82
:1007CD00ED6CD082D083F00F80B7E47856F6EE242E
:0A07DD00047852F6D20C4384022285
:101021007857E6FF7853E6FEC39F4004EE9FFF2208
:09103100C3EE7857962403FF2258
:10103A007858E6FF7855E6FEC39F4004EE9FFF22EC
:09104A00C3EE7858962405FF223C
:011193002239
:011194002238
:1010F20012115D1200007D017F021210DD7D017F61
:0411020002020000E5
:06117A00120E9B020000B2
:0B115D009004EE7401F09004EDF0220D
:1010DD009004EEEFF09004EDEDF0049004ECF0E4EC
:0510ED009004EFF02269
:100E9B009004EEE0602F9004ECE0601414F0E0702E
:100EAB000CA3E09004EFF09004EEE014F012118A22
:100EBB009004EFE0601214F0E0700A9004EDE09003
:090ECB0004ECF0800012118D22EC
:03118A00D2A022CE
:03118D00C2A022DB
:100CDA0075C137E4FF121190EF7008900047E06485
:100CEA00A56005120ED4D206900048E09000D7F015
:100CFA00900049E0FFE4FCFDFE900112120B2890DF
:100D0A00004AE024FF92C2A3E024FF92C3A3E0FFBB
:100D1A00900073E4F0A3EFF090004DE09000CEF065
:090D2A0090004EE09000F7F02269
:03119000E4FF2257
:100ED40090004774A5F0A37414F0A37401F0E4A384
:100EE400F0A3F0A37419F0A37401F0A304F0E49048
:070EF4000066F0FF020E1280
:100D800090004774A5F09000D7E0900048F09001E3
:100D900012A3A3A3E0900049F090012AE090004A3A
:100DA000F090012BE090004BF0900073A3E09000D6
:100DB0004CF09000CEE090004DF09000F7E09000F5
:0B0DC0004EF0E4900066F0FF020E12FF
:100E1200AB07E4FE900066E0FD74472EF582E434F1
:100E220000F583E0FCED6C900066F00EBE1FE575E8
:100E3200C137EB70197B017A0079477F007E02127D
:100E42000C767B017A007947E4FFFE120C76E4FF10
:050E52000FBFFFFC22B0
:0611060053C5F843C501CA
:0C110C00C2AF53C71843C70243C780227C
:0911680053C77FE4F5C6D2AF22A3
:101084008EC3E4F5C453C5F843C50312110C75C6E9
:081094005A75C6A5000211689F
:10105300AD07AC068CC3EDF5C412110675C65A75FF
:09106300C6A500121168AFC222FB
:100E57008E188F198B1A8A1B891CE4F51EF51D7EC7
:100E670000E519251DFFEE3518FE121053AB1AAA1F
:100E77001BA91C851D82758300EF120B06851D8239
:100E8700758300120AD9621E051DE51DC394204013
:040E9700CEAF1E229A
:100C76008E248F258B268A278928121084E4FDE589
:100C860024F5C38DC4AB26AA27A9288D82758300B7
:100C9600120AD9F5C253C5F843C50212110C75C61E
:100CA6005A75C6A500121168E4F5C212110675C67A
:100CB6005A75C6A500121168AB26AA27A9288D82E7
:100CC600758300120AD965C260037F01220DBD201B
:040CD600AE7F0022CB
:08000300120CDAC201C2052251
:09117100300105C201120D8022BB
:0300000002115199
:0C115100787FE4F6D8FD75815D020DCBBF
:100AC000BB010689828A83E0225002E722BBFE0234
:090AD000E32289828A83E4932267
:100AD900BB010CE58229F582E5833AF583E02250D2
:100AE90006E92582F8E622BBFE06E92582F8E2221C
:0D0AF900E58229F582E5833AF583E4932236
:100B0600F8BB010DE58229F582E5833AF583E8F025
:100B1600225006E92582C8F622BBFE05E92582C8D1
:020B2600F222B9
:0C0B2800ECF0A3EDF0A3EEF0A3EFF02240
:060B34008A838982E4734C
:00000001FF
